{
  "_format": "hh-sol-artifact-1",
  "contractName": "Airdrop",
  "sourceName": "contracts/helpContracts/Airdrop.sol",
  "abi": [
    {
      "inputs": [
        {
          "internalType": "contract MALYAS",
          "name": "givenToken_",
          "type": "address"
        },
        {
          "internalType": "contract TestToken",
          "name": "holdenToken_",
          "type": "address"
        }
      ],
      "stateMutability": "nonpayable",
      "type": "constructor"
    },
    {
      "anonymous": false,
      "inputs": [
        {
          "indexed": true,
          "internalType": "address",
          "name": "givenToken",
          "type": "address"
        },
        {
          "indexed": false,
          "internalType": "uint256",
          "name": "receiversCount",
          "type": "uint256"
        },
        {
          "indexed": false,
          "internalType": "uint256",
          "name": "timestamp",
          "type": "uint256"
        },
        {
          "indexed": false,
          "internalType": "uint256",
          "name": "amount",
          "type": "uint256"
        }
      ],
      "name": "DistributedAirdrop",
      "type": "event"
    },
    {
      "anonymous": false,
      "inputs": [
        {
          "indexed": true,
          "internalType": "address",
          "name": "previousOwner",
          "type": "address"
        },
        {
          "indexed": true,
          "internalType": "address",
          "name": "newOwner",
          "type": "address"
        }
      ],
      "name": "OwnershipTransferred",
      "type": "event"
    },
    {
      "inputs": [],
      "name": "CANNOT_TRANSFER_TO_ZERO_ADDRESS",
      "outputs": [
        {
          "internalType": "string",
          "name": "",
          "type": "string"
        }
      ],
      "stateMutability": "view",
      "type": "function"
    },
    {
      "inputs": [],
      "name": "NOT_CURRENT_OWNER",
      "outputs": [
        {
          "internalType": "string",
          "name": "",
          "type": "string"
        }
      ],
      "stateMutability": "view",
      "type": "function"
    },
    {
      "inputs": [
        {
          "internalType": "address[]",
          "name": "receivers",
          "type": "address[]"
        }
      ],
      "name": "distributeAirdrop",
      "outputs": [],
      "stateMutability": "nonpayable",
      "type": "function"
    },
    {
      "inputs": [],
      "name": "owner",
      "outputs": [
        {
          "internalType": "address",
          "name": "",
          "type": "address"
        }
      ],
      "stateMutability": "view",
      "type": "function"
    },
    {
      "inputs": [
        {
          "internalType": "address",
          "name": "_newOwner",
          "type": "address"
        }
      ],
      "name": "transferOwnership",
      "outputs": [],
      "stateMutability": "nonpayable",
      "type": "function"
    }
  ],
  "bytecode": "0x60806040523480156200001157600080fd5b5060405162000ef738038062000ef783398181016040528101906200003791906200012f565b336000806101000a81548173ffffffffffffffffffffffffffffffffffffffff021916908373ffffffffffffffffffffffffffffffffffffffff16021790555081600160006101000a81548173ffffffffffffffffffffffffffffffffffffffff021916908373ffffffffffffffffffffffffffffffffffffffff16021790555080600260006101000a81548173ffffffffffffffffffffffffffffffffffffffff021916908373ffffffffffffffffffffffffffffffffffffffff160217905550505062000200565b6000815190506200011281620001cc565b92915050565b6000815190506200012981620001e6565b92915050565b600080604083850312156200014357600080fd5b6000620001538582860162000101565b9250506020620001668582860162000118565b9150509250929050565b60006200017d82620001ac565b9050919050565b6000620001918262000170565b9050919050565b6000620001a58262000170565b9050919050565b600073ffffffffffffffffffffffffffffffffffffffff82169050919050565b620001d78162000184565b8114620001e357600080fd5b50565b620001f18162000198565b8114620001fd57600080fd5b50565b610ce780620002106000396000f3fe608060405234801561001057600080fd5b50600436106100575760003560e01c8063860d248a1461005c5780638da5cb5b1461007a578063d3fdcd1114610098578063f2fde38b146100b4578063f3fe3bc3146100d0575b600080fd5b6100646100ee565b60405161007191906109e2565b60405180910390f35b610082610127565b60405161008f919061099e565b60405180910390f35b6100b260048036038101906100ad91906108b4565b61014b565b005b6100ce60048036038101906100c9919061088b565b610550565b005b6100d861077d565b6040516100e591906109e2565b60405180910390f35b6040518060400160405280600681526020017f303138303032000000000000000000000000000000000000000000000000000081525081565b60008054906101000a900473ffffffffffffffffffffffffffffffffffffffff1681565b60008054906101000a900473ffffffffffffffffffffffffffffffffffffffff1673ffffffffffffffffffffffffffffffffffffffff163373ffffffffffffffffffffffffffffffffffffffff16146040518060400160405280600681526020017f303138303031000000000000000000000000000000000000000000000000000081525090610211576040517f08c379a000000000000000000000000000000000000000000000000000000000815260040161020891906109e2565b60405180910390fd5b506000600160009054906101000a900473ffffffffffffffffffffffffffffffffffffffff1673ffffffffffffffffffffffffffffffffffffffff166370a08231306040518263ffffffff1660e01b815260040161026f919061099e565b60206040518083038186803b15801561028757600080fd5b505afa15801561029b573d6000803e3d6000fd5b505050506040513d601f19601f820116820180604052508101906102bf919061091e565b905060008251826102d09190610aa8565b905060005b83518110156104d5576000600260009054906101000a900473ffffffffffffffffffffffffffffffffffffffff1673ffffffffffffffffffffffffffffffffffffffff166370a08231868481518110610357577f4e487b7100000000000000000000000000000000000000000000000000000000600052603260045260246000fd5b60200260200101516040518263ffffffff1660e01b815260040161037b919061099e565b60206040518083038186803b15801561039357600080fd5b505afa1580156103a7573d6000803e3d6000fd5b505050506040513d601f19601f820116820180604052508101906103cb919061091e565b11156104c257600160009054906101000a900473ffffffffffffffffffffffffffffffffffffffff1673ffffffffffffffffffffffffffffffffffffffff1663a9059cbb858381518110610448577f4e487b7100000000000000000000000000000000000000000000000000000000600052603260045260246000fd5b6020026020010151846040518363ffffffff1660e01b815260040161046e9291906109b9565b602060405180830381600087803b15801561048857600080fd5b505af115801561049c573d6000803e3d6000fd5b505050506040513d601f19601f820116820180604052508101906104c091906108f5565b505b80806104cd90610b85565b9150506102d5565b50600160009054906101000a900473ffffffffffffffffffffffffffffffffffffffff1673ffffffffffffffffffffffffffffffffffffffff167fa99bb73102882962e70a37df2e172551ff09181c41be0b3b23b791f305a1cac98451428560405161054393929190610a04565b60405180910390a2505050565b60008054906101000a900473ffffffffffffffffffffffffffffffffffffffff1673ffffffffffffffffffffffffffffffffffffffff163373ffffffffffffffffffffffffffffffffffffffff16146040518060400160405280600681526020017f303138303031000000000000000000000000000000000000000000000000000081525090610616576040517f08c379a000000000000000000000000000000000000000000000000000000000815260040161060d91906109e2565b60405180910390fd5b50600073ffffffffffffffffffffffffffffffffffffffff168173ffffffffffffffffffffffffffffffffffffffff1614156040518060400160405280600681526020017f3031383030320000000000000000000000000000000000000000000000000000815250906106bf576040517f08c379a00000000000000000000000000000000000000000000000000000000081526004016106b691906109e2565b60405180910390fd5b508073ffffffffffffffffffffffffffffffffffffffff1660008054906101000a900473ffffffffffffffffffffffffffffffffffffffff1673ffffffffffffffffffffffffffffffffffffffff167f8be0079c531659141344cd1fd0a4f28419497f9722a3daafe3b4186f6b6457e060405160405180910390a3806000806101000a81548173ffffffffffffffffffffffffffffffffffffffff021916908373ffffffffffffffffffffffffffffffffffffffff16021790555050565b6040518060400160405280600681526020017f303138303031000000000000000000000000000000000000000000000000000081525081565b60006107c96107c484610a60565b610a3b565b905080838252602082019050828560208602820111156107e857600080fd5b60005b8581101561081857816107fe8882610822565b8452602084019350602083019250506001810190506107eb565b5050509392505050565b60008135905061083181610c6c565b92915050565b600082601f83011261084857600080fd5b81356108588482602086016107b6565b91505092915050565b60008151905061087081610c83565b92915050565b60008151905061088581610c9a565b92915050565b60006020828403121561089d57600080fd5b60006108ab84828501610822565b91505092915050565b6000602082840312156108c657600080fd5b600082013567ffffffffffffffff8111156108e057600080fd5b6108ec84828501610837565b91505092915050565b60006020828403121561090757600080fd5b600061091584828501610861565b91505092915050565b60006020828403121561093057600080fd5b600061093e84828501610876565b91505092915050565b61095081610ad9565b82525050565b600061096182610a8c565b61096b8185610a97565b935061097b818560208601610b21565b61098481610c5b565b840191505092915050565b61099881610b17565b82525050565b60006020820190506109b36000830184610947565b92915050565b60006040820190506109ce6000830185610947565b6109db602083018461098f565b9392505050565b600060208201905081810360008301526109fc8184610956565b905092915050565b6000606082019050610a19600083018661098f565b610a26602083018561098f565b610a33604083018461098f565b949350505050565b6000610a45610a56565b9050610a518282610b54565b919050565b6000604051905090565b600067ffffffffffffffff821115610a7b57610a7a610c2c565b5b602082029050602081019050919050565b600081519050919050565b600082825260208201905092915050565b6000610ab382610b17565b9150610abe83610b17565b925082610ace57610acd610bfd565b5b828204905092915050565b6000610ae482610af7565b9050919050565b60008115159050919050565b600073ffffffffffffffffffffffffffffffffffffffff82169050919050565b6000819050919050565b60005b83811015610b3f578082015181840152602081019050610b24565b83811115610b4e576000848401525b50505050565b610b5d82610c5b565b810181811067ffffffffffffffff82111715610b7c57610b7b610c2c565b5b80604052505050565b6000610b9082610b17565b91507fffffffffffffffffffffffffffffffffffffffffffffffffffffffffffffffff821415610bc357610bc2610bce565b5b600182019050919050565b7f4e487b7100000000000000000000000000000000000000000000000000000000600052601160045260246000fd5b7f4e487b7100000000000000000000000000000000000000000000000000000000600052601260045260246000fd5b7f4e487b7100000000000000000000000000000000000000000000000000000000600052604160045260246000fd5b6000601f19601f8301169050919050565b610c7581610ad9565b8114610c8057600080fd5b50565b610c8c81610aeb565b8114610c9757600080fd5b50565b610ca381610b17565b8114610cae57600080fd5b5056fea2646970667358221220f7e07110a2ca9fea072e321518aae122a56217dd4ee103fc089793ede72ab2bf64736f6c63430008040033",
  "linkReferences": {},
  "deployedLinkReferences": {}
}