{
  "_format": "hh-sol-artifact-1",
  "contractName": "Airdrop",
  "sourceName": "contracts/helpContracts/Airdrop.sol",
  "abi": [
    {
      "inputs": [
        {
          "internalType": "contract MALYAS",
          "name": "givenToken_",
          "type": "address"
        },
        {
          "internalType": "contract TestToken",
          "name": "heldToken_",
          "type": "address"
        }
      ],
      "stateMutability": "nonpayable",
      "type": "constructor"
    },
    {
      "anonymous": false,
      "inputs": [
        {
          "indexed": false,
          "internalType": "address",
          "name": "beneficiary",
          "type": "address"
        },
        {
          "indexed": false,
          "internalType": "uint256",
          "name": "amount",
          "type": "uint256"
        },
        {
          "indexed": false,
          "internalType": "uint256",
          "name": "timestamp",
          "type": "uint256"
        }
      ],
      "name": "ClaimAirdrop",
      "type": "event"
    },
    {
      "anonymous": false,
      "inputs": [
        {
          "indexed": false,
          "internalType": "uint256",
          "name": "receiversCount",
          "type": "uint256"
        },
        {
          "indexed": false,
          "internalType": "uint256",
          "name": "timestamp",
          "type": "uint256"
        }
      ],
      "name": "DistributedAirdrop",
      "type": "event"
    },
    {
      "anonymous": false,
      "inputs": [
        {
          "indexed": true,
          "internalType": "address",
          "name": "previousOwner",
          "type": "address"
        },
        {
          "indexed": true,
          "internalType": "address",
          "name": "newOwner",
          "type": "address"
        }
      ],
      "name": "OwnershipTransferred",
      "type": "event"
    },
    {
      "inputs": [],
      "name": "CANNOT_TRANSFER_TO_ZERO_ADDRESS",
      "outputs": [
        {
          "internalType": "string",
          "name": "",
          "type": "string"
        }
      ],
      "stateMutability": "view",
      "type": "function"
    },
    {
      "inputs": [],
      "name": "NOT_CURRENT_OWNER",
      "outputs": [
        {
          "internalType": "string",
          "name": "",
          "type": "string"
        }
      ],
      "stateMutability": "view",
      "type": "function"
    },
    {
      "inputs": [],
      "name": "claimAirdrop",
      "outputs": [],
      "stateMutability": "nonpayable",
      "type": "function"
    },
    {
      "inputs": [
        {
          "internalType": "address[]",
          "name": "receivers",
          "type": "address[]"
        },
        {
          "internalType": "uint256[]",
          "name": "amounts",
          "type": "uint256[]"
        }
      ],
      "name": "distributeAirdrop",
      "outputs": [],
      "stateMutability": "nonpayable",
      "type": "function"
    },
    {
      "inputs": [],
      "name": "owner",
      "outputs": [
        {
          "internalType": "address",
          "name": "",
          "type": "address"
        }
      ],
      "stateMutability": "view",
      "type": "function"
    },
    {
      "inputs": [
        {
          "internalType": "address",
          "name": "_newOwner",
          "type": "address"
        }
      ],
      "name": "transferOwnership",
      "outputs": [],
      "stateMutability": "nonpayable",
      "type": "function"
    }
  ],
  "bytecode": "0x60806040523480156200001157600080fd5b50604051620011703803806200117083398181016040528101906200003791906200012f565b336000806101000a81548173ffffffffffffffffffffffffffffffffffffffff021916908373ffffffffffffffffffffffffffffffffffffffff16021790555081600160006101000a81548173ffffffffffffffffffffffffffffffffffffffff021916908373ffffffffffffffffffffffffffffffffffffffff16021790555080600260006101000a81548173ffffffffffffffffffffffffffffffffffffffff021916908373ffffffffffffffffffffffffffffffffffffffff160217905550505062000200565b6000815190506200011281620001cc565b92915050565b6000815190506200012981620001e6565b92915050565b600080604083850312156200014357600080fd5b6000620001538582860162000101565b9250506020620001668582860162000118565b9150509250929050565b60006200017d82620001ac565b9050919050565b6000620001918262000170565b9050919050565b6000620001a58262000170565b9050919050565b600073ffffffffffffffffffffffffffffffffffffffff82169050919050565b620001d78162000184565b8114620001e357600080fd5b50565b620001f18162000198565b8114620001fd57600080fd5b50565b610f6080620002106000396000f3fe608060405234801561001057600080fd5b50600436106100625760003560e01c80635b88349d14610067578063860d248a146100715780638da5cb5b1461008f578063dd924594146100ad578063f2fde38b146100c9578063f3fe3bc3146100e5575b600080fd5b61006f610103565b005b6100796103c8565b6040516100869190610ce8565b60405180910390f35b610097610401565b6040516100a49190610c6d565b60405180910390f35b6100c760048036038101906100c29190610b09565b610425565b005b6100e360048036038101906100de9190610ae0565b6107a7565b005b6100ed6109d4565b6040516100fa9190610ce8565b60405180910390f35b600360003373ffffffffffffffffffffffffffffffffffffffff1673ffffffffffffffffffffffffffffffffffffffff16815260200190815260200160002060009054906101000a900460ff1615610190576040517f08c379a000000000000000000000000000000000000000000000000000000000815260040161018790610d2a565b60405180910390fd5b6000600260009054906101000a900473ffffffffffffffffffffffffffffffffffffffff1673ffffffffffffffffffffffffffffffffffffffff166370a08231336040518263ffffffff1660e01b81526004016101ed9190610c6d565b60206040518083038186803b15801561020557600080fd5b505afa158015610219573d6000803e3d6000fd5b505050506040513d601f19601f8201168201806040525081019061023d9190610ba7565b905060008111610282576040517f08c379a000000000000000000000000000000000000000000000000000000000815260040161027990610d0a565b60405180910390fd5b600160009054906101000a900473ffffffffffffffffffffffffffffffffffffffff1673ffffffffffffffffffffffffffffffffffffffff1663a9059cbb33836040518363ffffffff1660e01b81526004016102df929190610c88565b602060405180830381600087803b1580156102f957600080fd5b505af115801561030d573d6000803e3d6000fd5b505050506040513d601f19601f820116820180604052508101906103319190610b7e565b506001600360003373ffffffffffffffffffffffffffffffffffffffff1673ffffffffffffffffffffffffffffffffffffffff16815260200190815260200160002060006101000a81548160ff0219169083151502179055507f6dd6399ded1c7412b7e6851c12167d0293ae9fd8caefea79151e062fdf0a3c1a3382426040516103bd93929190610cb1565b60405180910390a150565b6040518060400160405280600681526020017f303138303032000000000000000000000000000000000000000000000000000081525081565b60008054906101000a900473ffffffffffffffffffffffffffffffffffffffff1681565b60008054906101000a900473ffffffffffffffffffffffffffffffffffffffff1673ffffffffffffffffffffffffffffffffffffffff163373ffffffffffffffffffffffffffffffffffffffff16146040518060400160405280600681526020017f3031383030310000000000000000000000000000000000000000000000000000815250906104eb576040517f08c379a00000000000000000000000000000000000000000000000000000000081526004016104e29190610ce8565b60405180910390fd5b508181905084849050146104fe57600080fd5b60005b84849050811015610764576000600260009054906101000a900473ffffffffffffffffffffffffffffffffffffffff1673ffffffffffffffffffffffffffffffffffffffff166370a08231878785818110610585577f4e487b7100000000000000000000000000000000000000000000000000000000600052603260045260246000fd5b905060200201602081019061059a9190610ae0565b6040518263ffffffff1660e01b81526004016105b69190610c6d565b60206040518083038186803b1580156105ce57600080fd5b505afa1580156105e2573d6000803e3d6000fd5b505050506040513d601f19601f820116820180604052508101906106069190610ba7565b111561075157600160009054906101000a900473ffffffffffffffffffffffffffffffffffffffff1673ffffffffffffffffffffffffffffffffffffffff1663a9059cbb868684818110610683577f4e487b7100000000000000000000000000000000000000000000000000000000600052603260045260246000fd5b90506020020160208101906106989190610ae0565b8585858181106106d1577f4e487b7100000000000000000000000000000000000000000000000000000000600052603260045260246000fd5b905060200201356040518363ffffffff1660e01b81526004016106f5929190610c88565b602060405180830381600087803b15801561070f57600080fd5b505af1158015610723573d6000803e3d6000fd5b505050506040513d601f19601f820116820180604052508101906107479190610b7e565b61075057600080fd5b5b808061075c90610e0a565b915050610501565b507f941a2ad35f960ac55e4f0c2daf24e0c00512a0430d2667203811a104e82b0f0d8484905042604051610799929190610d4a565b60405180910390a150505050565b60008054906101000a900473ffffffffffffffffffffffffffffffffffffffff1673ffffffffffffffffffffffffffffffffffffffff163373ffffffffffffffffffffffffffffffffffffffff16146040518060400160405280600681526020017f30313830303100000000000000000000000000000000000000000000000000008152509061086d576040517f08c379a00000000000000000000000000000000000000000000000000000000081526004016108649190610ce8565b60405180910390fd5b50600073ffffffffffffffffffffffffffffffffffffffff168173ffffffffffffffffffffffffffffffffffffffff1614156040518060400160405280600681526020017f303138303032000000000000000000000000000000000000000000000000000081525090610916576040517f08c379a000000000000000000000000000000000000000000000000000000000815260040161090d9190610ce8565b60405180910390fd5b508073ffffffffffffffffffffffffffffffffffffffff1660008054906101000a900473ffffffffffffffffffffffffffffffffffffffff1673ffffffffffffffffffffffffffffffffffffffff167f8be0079c531659141344cd1fd0a4f28419497f9722a3daafe3b4186f6b6457e060405160405180910390a3806000806101000a81548173ffffffffffffffffffffffffffffffffffffffff021916908373ffffffffffffffffffffffffffffffffffffffff16021790555050565b6040518060400160405280600681526020017f303138303031000000000000000000000000000000000000000000000000000081525081565b600081359050610a1c81610ee5565b92915050565b60008083601f840112610a3457600080fd5b8235905067ffffffffffffffff811115610a4d57600080fd5b602083019150836020820283011115610a6557600080fd5b9250929050565b60008083601f840112610a7e57600080fd5b8235905067ffffffffffffffff811115610a9757600080fd5b602083019150836020820283011115610aaf57600080fd5b9250929050565b600081519050610ac581610efc565b92915050565b600081519050610ada81610f13565b92915050565b600060208284031215610af257600080fd5b6000610b0084828501610a0d565b91505092915050565b60008060008060408587031215610b1f57600080fd5b600085013567ffffffffffffffff811115610b3957600080fd5b610b4587828801610a22565b9450945050602085013567ffffffffffffffff811115610b6457600080fd5b610b7087828801610a6c565b925092505092959194509250565b600060208284031215610b9057600080fd5b6000610b9e84828501610ab6565b91505092915050565b600060208284031215610bb957600080fd5b6000610bc784828501610acb565b91505092915050565b610bd981610d8f565b82525050565b6000610bea82610d73565b610bf48185610d7e565b9350610c04818560208601610dd7565b610c0d81610e82565b840191505092915050565b6000610c25600f83610d7e565b9150610c3082610e93565b602082019050919050565b6000610c48600783610d7e565b9150610c5382610ebc565b602082019050919050565b610c6781610dcd565b82525050565b6000602082019050610c826000830184610bd0565b92915050565b6000604082019050610c9d6000830185610bd0565b610caa6020830184610c5e565b9392505050565b6000606082019050610cc66000830186610bd0565b610cd36020830185610c5e565b610ce06040830184610c5e565b949350505050565b60006020820190508181036000830152610d028184610bdf565b905092915050565b60006020820190508181036000830152610d2381610c18565b9050919050565b60006020820190508181036000830152610d4381610c3b565b9050919050565b6000604082019050610d5f6000830185610c5e565b610d6c6020830184610c5e565b9392505050565b600081519050919050565b600082825260208201905092915050565b6000610d9a82610dad565b9050919050565b60008115159050919050565b600073ffffffffffffffffffffffffffffffffffffffff82169050919050565b6000819050919050565b60005b83811015610df5578082015181840152602081019050610dda565b83811115610e04576000848401525b50505050565b6000610e1582610dcd565b91507fffffffffffffffffffffffffffffffffffffffffffffffffffffffffffffffff821415610e4857610e47610e53565b5b600182019050919050565b7f4e487b7100000000000000000000000000000000000000000000000000000000600052601160045260246000fd5b6000601f19601f8301169050919050565b7f6e6f20686f6c64656e20746f6b656e0000000000000000000000000000000000600082015250565b7f636c61696d656400000000000000000000000000000000000000000000000000600082015250565b610eee81610d8f565b8114610ef957600080fd5b50565b610f0581610da1565b8114610f1057600080fd5b50565b610f1c81610dcd565b8114610f2757600080fd5b5056fea2646970667358221220fbe45cad7c385e55d576c185f6dc4b52c66904ea654cd76ac2d44065c309848064736f6c63430008040033",
  "linkReferences": {},
  "deployedLinkReferences": {}
}