{
  "_format": "hh-sol-artifact-1",
  "contractName": "TeamTokens",
  "sourceName": "contracts/helpContracts/TeamTokens.sol",
  "abi": [
    {
      "inputs": [
        {
          "internalType": "contract MALYAS",
          "name": "token_",
          "type": "address"
        },
        {
          "internalType": "uint256",
          "name": "cliff_",
          "type": "uint256"
        },
        {
          "internalType": "address",
          "name": "beneficiary_",
          "type": "address"
        }
      ],
      "stateMutability": "nonpayable",
      "type": "constructor"
    },
    {
      "anonymous": false,
      "inputs": [
        {
          "indexed": true,
          "internalType": "address",
          "name": "previousOwner",
          "type": "address"
        },
        {
          "indexed": true,
          "internalType": "address",
          "name": "newOwner",
          "type": "address"
        }
      ],
      "name": "OwnershipTransferred",
      "type": "event"
    },
    {
      "anonymous": false,
      "inputs": [
        {
          "indexed": false,
          "internalType": "address",
          "name": "beneficiary",
          "type": "address"
        },
        {
          "indexed": false,
          "internalType": "uint256",
          "name": "amount",
          "type": "uint256"
        },
        {
          "indexed": false,
          "internalType": "uint256",
          "name": "timestamp",
          "type": "uint256"
        }
      ],
      "name": "WithdrawnTokens",
      "type": "event"
    },
    {
      "inputs": [],
      "name": "CANNOT_TRANSFER_TO_ZERO_ADDRESS",
      "outputs": [
        {
          "internalType": "string",
          "name": "",
          "type": "string"
        }
      ],
      "stateMutability": "view",
      "type": "function"
    },
    {
      "inputs": [],
      "name": "NOT_CURRENT_OWNER",
      "outputs": [
        {
          "internalType": "string",
          "name": "",
          "type": "string"
        }
      ],
      "stateMutability": "view",
      "type": "function"
    },
    {
      "inputs": [],
      "name": "_beneficiary",
      "outputs": [
        {
          "internalType": "address",
          "name": "",
          "type": "address"
        }
      ],
      "stateMutability": "view",
      "type": "function"
    },
    {
      "inputs": [],
      "name": "_cliff",
      "outputs": [
        {
          "internalType": "uint256",
          "name": "",
          "type": "uint256"
        }
      ],
      "stateMutability": "view",
      "type": "function"
    },
    {
      "inputs": [],
      "name": "owner",
      "outputs": [
        {
          "internalType": "address",
          "name": "",
          "type": "address"
        }
      ],
      "stateMutability": "view",
      "type": "function"
    },
    {
      "inputs": [
        {
          "internalType": "address",
          "name": "_newOwner",
          "type": "address"
        }
      ],
      "name": "transferOwnership",
      "outputs": [],
      "stateMutability": "nonpayable",
      "type": "function"
    },
    {
      "inputs": [
        {
          "internalType": "uint256",
          "name": "_amount",
          "type": "uint256"
        }
      ],
      "name": "withdrawTokens",
      "outputs": [],
      "stateMutability": "nonpayable",
      "type": "function"
    }
  ],
  "bytecode": "0x60806040523480156200001157600080fd5b5060405162000dd638038062000dd6833981810160405281019062000037919062000206565b336000806101000a81548173ffffffffffffffffffffffffffffffffffffffff021916908373ffffffffffffffffffffffffffffffffffffffff160217905550428211620000bc576040517f08c379a0000000000000000000000000000000000000000000000000000000008152600401620000b390620002cc565b60405180910390fd5b600073ffffffffffffffffffffffffffffffffffffffff168173ffffffffffffffffffffffffffffffffffffffff1614156200012f576040517f08c379a00000000000000000000000000000000000000000000000000000000081526004016200012690620002aa565b60405180910390fd5b82600160006101000a81548173ffffffffffffffffffffffffffffffffffffffff021916908373ffffffffffffffffffffffffffffffffffffffff1602179055508160028190555080600360006101000a81548173ffffffffffffffffffffffffffffffffffffffff021916908373ffffffffffffffffffffffffffffffffffffffff160217905550505050620003f1565b600081519050620001d281620003a3565b92915050565b600081519050620001e981620003bd565b92915050565b6000815190506200020081620003d7565b92915050565b6000806000606084860312156200021c57600080fd5b60006200022c86828701620001d8565b93505060206200023f86828701620001ef565b92505060406200025286828701620001c1565b9150509250925092565b60006200026b601583620002ee565b9150620002788262000351565b602082019050919050565b600062000292600f83620002ee565b91506200029f826200037a565b602082019050919050565b60006020820190508181036000830152620002c5816200025c565b9050919050565b60006020820190508181036000830152620002e78162000283565b9050919050565b600082825260208201905092915050565b60006200030c8262000327565b9050919050565b60006200032082620002ff565b9050919050565b600073ffffffffffffffffffffffffffffffffffffffff82169050919050565b6000819050919050565b7f62656e656669636961727920696e636f72726563740000000000000000000000600082015250565b7f636c69666620696e636f72726563740000000000000000000000000000000000600082015250565b620003ae81620002ff565b8114620003ba57600080fd5b50565b620003c88162000313565b8114620003d457600080fd5b50565b620003e28162000347565b8114620003ee57600080fd5b50565b6109d580620004016000396000f3fe608060405234801561001057600080fd5b506004361061007d5760003560e01c8063860d248a1161005b578063860d248a146100da5780638da5cb5b146100f8578063f2fde38b14610116578063f3fe3bc3146101325761007d565b80631c073faa14610082578063315a095d146100a0578063828cedb7146100bc575b600080fd5b61008a610150565b604051610097919061086e565b60405180910390f35b6100ba60048036038101906100b5919061070e565b610156565b005b6100c4610394565b6040516100d191906107b1565b60405180910390f35b6100e26103ba565b6040516100ef919061082c565b60405180910390f35b6101006103f3565b60405161010d91906107b1565b60405180910390f35b610130600480360381019061012b91906106bc565b610417565b005b61013a610644565b604051610147919061082c565b60405180910390f35b60025481565b60008054906101000a900473ffffffffffffffffffffffffffffffffffffffff1673ffffffffffffffffffffffffffffffffffffffff163373ffffffffffffffffffffffffffffffffffffffff16146040518060400160405280600681526020017f30313830303100000000000000000000000000000000000000000000000000008152509061021c576040517f08c379a0000000000000000000000000000000000000000000000000000000008152600401610213919061082c565b60405180910390fd5b50600254421015610262576040517f08c379a00000000000000000000000000000000000000000000000000000000081526004016102599061084e565b60405180910390fd5b600160009054906101000a900473ffffffffffffffffffffffffffffffffffffffff1673ffffffffffffffffffffffffffffffffffffffff1663a9059cbb600360009054906101000a900473ffffffffffffffffffffffffffffffffffffffff16836040518363ffffffff1660e01b81526004016102e19291906107cc565b602060405180830381600087803b1580156102fb57600080fd5b505af115801561030f573d6000803e3d6000fd5b505050506040513d601f19601f8201168201806040525081019061033391906106e5565b507f9cea675f1bca7adcf3410e304373ead928f2281467df11e6a47fd477a4ff63f4600360009054906101000a900473ffffffffffffffffffffffffffffffffffffffff168242604051610389939291906107f5565b60405180910390a150565b600360009054906101000a900473ffffffffffffffffffffffffffffffffffffffff1681565b6040518060400160405280600681526020017f303138303032000000000000000000000000000000000000000000000000000081525081565b60008054906101000a900473ffffffffffffffffffffffffffffffffffffffff1681565b60008054906101000a900473ffffffffffffffffffffffffffffffffffffffff1673ffffffffffffffffffffffffffffffffffffffff163373ffffffffffffffffffffffffffffffffffffffff16146040518060400160405280600681526020017f3031383030310000000000000000000000000000000000000000000000000000815250906104dd576040517f08c379a00000000000000000000000000000000000000000000000000000000081526004016104d4919061082c565b60405180910390fd5b50600073ffffffffffffffffffffffffffffffffffffffff168173ffffffffffffffffffffffffffffffffffffffff1614156040518060400160405280600681526020017f303138303032000000000000000000000000000000000000000000000000000081525090610586576040517f08c379a000000000000000000000000000000000000000000000000000000000815260040161057d919061082c565b60405180910390fd5b508073ffffffffffffffffffffffffffffffffffffffff1660008054906101000a900473ffffffffffffffffffffffffffffffffffffffff1673ffffffffffffffffffffffffffffffffffffffff167f8be0079c531659141344cd1fd0a4f28419497f9722a3daafe3b4186f6b6457e060405160405180910390a3806000806101000a81548173ffffffffffffffffffffffffffffffffffffffff021916908373ffffffffffffffffffffffffffffffffffffffff16021790555050565b6040518060400160405280600681526020017f303138303031000000000000000000000000000000000000000000000000000081525081565b60008135905061068c8161095a565b92915050565b6000815190506106a181610971565b92915050565b6000813590506106b681610988565b92915050565b6000602082840312156106ce57600080fd5b60006106dc8482850161067d565b91505092915050565b6000602082840312156106f757600080fd5b600061070584828501610692565b91505092915050565b60006020828403121561072057600080fd5b600061072e848285016106a7565b91505092915050565b610740816108a5565b82525050565b600061075182610889565b61075b8185610894565b935061076b8185602086016108ed565b61077481610920565b840191505092915050565b600061078c601783610894565b915061079782610931565b602082019050919050565b6107ab816108e3565b82525050565b60006020820190506107c66000830184610737565b92915050565b60006040820190506107e16000830185610737565b6107ee60208301846107a2565b9392505050565b600060608201905061080a6000830186610737565b61081760208301856107a2565b61082460408301846107a2565b949350505050565b600060208201905081810360008301526108468184610746565b905092915050565b600060208201905081810360008301526108678161077f565b9050919050565b600060208201905061088360008301846107a2565b92915050565b600081519050919050565b600082825260208201905092915050565b60006108b0826108c3565b9050919050565b60008115159050919050565b600073ffffffffffffffffffffffffffffffffffffffff82169050919050565b6000819050919050565b60005b8381101561090b5780820151818401526020810190506108f0565b8381111561091a576000848401525b50505050565b6000601f19601f8301169050919050565b7f746f6b656e7320617265207374696c6c2066726f7a656e000000000000000000600082015250565b610963816108a5565b811461096e57600080fd5b50565b61097a816108b7565b811461098557600080fd5b50565b610991816108e3565b811461099c57600080fd5b5056fea2646970667358221220179842898281e713e813c18a3228a897499073455769310e707c4edc8fcf85ec64736f6c63430008040033",
  "linkReferences": {},
  "deployedLinkReferences": {}
}