{
  "_format": "hh-sol-artifact-1",
  "contractName": "Pausable",
  "sourceName": "contracts/utils/Pausable.sol",
  "abi": [
    {
      "anonymous": false,
      "inputs": [
        {
          "indexed": true,
          "internalType": "address",
          "name": "previousOwner",
          "type": "address"
        },
        {
          "indexed": true,
          "internalType": "address",
          "name": "newOwner",
          "type": "address"
        }
      ],
      "name": "OwnershipTransferred",
      "type": "event"
    },
    {
      "inputs": [],
      "name": "CANNOT_TRANSFER_TO_ZERO_ADDRESS",
      "outputs": [
        {
          "internalType": "string",
          "name": "",
          "type": "string"
        }
      ],
      "stateMutability": "view",
      "type": "function"
    },
    {
      "inputs": [],
      "name": "NOT_CURRENT_OWNER",
      "outputs": [
        {
          "internalType": "string",
          "name": "",
          "type": "string"
        }
      ],
      "stateMutability": "view",
      "type": "function"
    },
    {
      "inputs": [],
      "name": "owner",
      "outputs": [
        {
          "internalType": "address",
          "name": "",
          "type": "address"
        }
      ],
      "stateMutability": "view",
      "type": "function"
    },
    {
      "inputs": [
        {
          "internalType": "bool",
          "name": "_pause",
          "type": "bool"
        }
      ],
      "name": "pause",
      "outputs": [],
      "stateMutability": "nonpayable",
      "type": "function"
    },
    {
      "inputs": [
        {
          "internalType": "address",
          "name": "_newOwner",
          "type": "address"
        }
      ],
      "name": "transferOwnership",
      "outputs": [],
      "stateMutability": "nonpayable",
      "type": "function"
    }
  ],
  "bytecode": "0x608060405234801561001057600080fd5b50336000806101000a81548173ffffffffffffffffffffffffffffffffffffffff021916908373ffffffffffffffffffffffffffffffffffffffff160217905550610698806100606000396000f3fe608060405234801561001057600080fd5b50600436106100575760003560e01c806302329a291461005c578063860d248a146100785780638da5cb5b14610096578063f2fde38b146100b4578063f3fe3bc3146100d0575b600080fd5b610076600480360381019061007191906104e8565b6100ee565b005b6100806101d2565b60405161008d9190610574565b60405180910390f35b61009e61020b565b6040516100ab9190610559565b60405180910390f35b6100ce60048036038101906100c991906104bf565b61022f565b005b6100d861045c565b6040516100e59190610574565b60405180910390f35b60008054906101000a900473ffffffffffffffffffffffffffffffffffffffff1673ffffffffffffffffffffffffffffffffffffffff163373ffffffffffffffffffffffffffffffffffffffff16146040518060400160405280600681526020017f3031383030310000000000000000000000000000000000000000000000000000815250906101b4576040517f08c379a00000000000000000000000000000000000000000000000000000000081526004016101ab9190610574565b60405180910390fd5b5080600060146101000a81548160ff02191690831515021790555050565b6040518060400160405280600681526020017f303138303032000000000000000000000000000000000000000000000000000081525081565b60008054906101000a900473ffffffffffffffffffffffffffffffffffffffff1681565b60008054906101000a900473ffffffffffffffffffffffffffffffffffffffff1673ffffffffffffffffffffffffffffffffffffffff163373ffffffffffffffffffffffffffffffffffffffff16146040518060400160405280600681526020017f3031383030310000000000000000000000000000000000000000000000000000815250906102f5576040517f08c379a00000000000000000000000000000000000000000000000000000000081526004016102ec9190610574565b60405180910390fd5b50600073ffffffffffffffffffffffffffffffffffffffff168173ffffffffffffffffffffffffffffffffffffffff1614156040518060400160405280600681526020017f30313830303200000000000000000000000000000000000000000000000000008152509061039e576040517f08c379a00000000000000000000000000000000000000000000000000000000081526004016103959190610574565b60405180910390fd5b508073ffffffffffffffffffffffffffffffffffffffff1660008054906101000a900473ffffffffffffffffffffffffffffffffffffffff1673ffffffffffffffffffffffffffffffffffffffff167f8be0079c531659141344cd1fd0a4f28419497f9722a3daafe3b4186f6b6457e060405160405180910390a3806000806101000a81548173ffffffffffffffffffffffffffffffffffffffff021916908373ffffffffffffffffffffffffffffffffffffffff16021790555050565b6040518060400160405280600681526020017f303138303031000000000000000000000000000000000000000000000000000081525081565b6000813590506104a481610634565b92915050565b6000813590506104b98161064b565b92915050565b6000602082840312156104d157600080fd5b60006104df84828501610495565b91505092915050565b6000602082840312156104fa57600080fd5b6000610508848285016104aa565b91505092915050565b61051a816105b2565b82525050565b600061052b82610596565b61053581856105a1565b93506105458185602086016105f0565b61054e81610623565b840191505092915050565b600060208201905061056e6000830184610511565b92915050565b6000602082019050818103600083015261058e8184610520565b905092915050565b600081519050919050565b600082825260208201905092915050565b60006105bd826105d0565b9050919050565b60008115159050919050565b600073ffffffffffffffffffffffffffffffffffffffff82169050919050565b60005b8381101561060e5780820151818401526020810190506105f3565b8381111561061d576000848401525b50505050565b6000601f19601f8301169050919050565b61063d816105b2565b811461064857600080fd5b50565b610654816105c4565b811461065f57600080fd5b5056fea2646970667358221220e14f427835814a64ea99190f3176105c617d67ee8b2e8d52cf0140a590b5aa6764736f6c63430008040033",
  "linkReferences": {},
  "deployedLinkReferences": {}
}