{
  "_format": "hh-sol-artifact-1",
  "contractName": "MALYAS",
  "sourceName": "contracts/MALYAS.sol",
  "abi": [
    {
      "inputs": [
        {
          "internalType": "string",
          "name": "name_",
          "type": "string"
        },
        {
          "internalType": "string",
          "name": "symbol_",
          "type": "string"
        },
        {
          "internalType": "uint256",
          "name": "totalSupply_",
          "type": "uint256"
        }
      ],
      "stateMutability": "nonpayable",
      "type": "constructor"
    },
    {
      "anonymous": false,
      "inputs": [
        {
          "indexed": true,
          "internalType": "address",
          "name": "owner",
          "type": "address"
        },
        {
          "indexed": true,
          "internalType": "address",
          "name": "spender",
          "type": "address"
        },
        {
          "indexed": false,
          "internalType": "uint256",
          "name": "value",
          "type": "uint256"
        }
      ],
      "name": "Approval",
      "type": "event"
    },
    {
      "anonymous": false,
      "inputs": [
        {
          "indexed": true,
          "internalType": "address",
          "name": "previousOwner",
          "type": "address"
        },
        {
          "indexed": true,
          "internalType": "address",
          "name": "newOwner",
          "type": "address"
        }
      ],
      "name": "OwnershipTransferred",
      "type": "event"
    },
    {
      "anonymous": false,
      "inputs": [
        {
          "indexed": true,
          "internalType": "address",
          "name": "from",
          "type": "address"
        },
        {
          "indexed": true,
          "internalType": "address",
          "name": "to",
          "type": "address"
        },
        {
          "indexed": false,
          "internalType": "uint256",
          "name": "value",
          "type": "uint256"
        }
      ],
      "name": "Transfer",
      "type": "event"
    },
    {
      "inputs": [],
      "name": "CANNOT_TRANSFER_TO_ZERO_ADDRESS",
      "outputs": [
        {
          "internalType": "string",
          "name": "",
          "type": "string"
        }
      ],
      "stateMutability": "view",
      "type": "function"
    },
    {
      "inputs": [],
      "name": "NOT_CURRENT_OWNER",
      "outputs": [
        {
          "internalType": "string",
          "name": "",
          "type": "string"
        }
      ],
      "stateMutability": "view",
      "type": "function"
    },
    {
      "inputs": [
        {
          "internalType": "address",
          "name": "account",
          "type": "address"
        },
        {
          "internalType": "uint256",
          "name": "amount",
          "type": "uint256"
        }
      ],
      "name": "_burn",
      "outputs": [],
      "stateMutability": "nonpayable",
      "type": "function"
    },
    {
      "inputs": [
        {
          "internalType": "address",
          "name": "account",
          "type": "address"
        },
        {
          "internalType": "uint256",
          "name": "amount",
          "type": "uint256"
        }
      ],
      "name": "_mint",
      "outputs": [],
      "stateMutability": "nonpayable",
      "type": "function"
    },
    {
      "inputs": [
        {
          "internalType": "address",
          "name": "owner",
          "type": "address"
        },
        {
          "internalType": "address",
          "name": "spender",
          "type": "address"
        }
      ],
      "name": "allowance",
      "outputs": [
        {
          "internalType": "uint256",
          "name": "",
          "type": "uint256"
        }
      ],
      "stateMutability": "view",
      "type": "function"
    },
    {
      "inputs": [
        {
          "internalType": "address",
          "name": "spender",
          "type": "address"
        },
        {
          "internalType": "uint256",
          "name": "amount",
          "type": "uint256"
        }
      ],
      "name": "approve",
      "outputs": [
        {
          "internalType": "bool",
          "name": "",
          "type": "bool"
        }
      ],
      "stateMutability": "nonpayable",
      "type": "function"
    },
    {
      "inputs": [
        {
          "internalType": "address",
          "name": "account",
          "type": "address"
        }
      ],
      "name": "balanceOf",
      "outputs": [
        {
          "internalType": "uint256",
          "name": "",
          "type": "uint256"
        }
      ],
      "stateMutability": "view",
      "type": "function"
    },
    {
      "inputs": [],
      "name": "decimals",
      "outputs": [
        {
          "internalType": "uint8",
          "name": "",
          "type": "uint8"
        }
      ],
      "stateMutability": "view",
      "type": "function"
    },
    {
      "inputs": [
        {
          "internalType": "address",
          "name": "spender",
          "type": "address"
        },
        {
          "internalType": "uint256",
          "name": "subtractedValue",
          "type": "uint256"
        }
      ],
      "name": "decreaseAllowance",
      "outputs": [
        {
          "internalType": "bool",
          "name": "",
          "type": "bool"
        }
      ],
      "stateMutability": "nonpayable",
      "type": "function"
    },
    {
      "inputs": [
        {
          "internalType": "address",
          "name": "spender",
          "type": "address"
        },
        {
          "internalType": "uint256",
          "name": "addedValue",
          "type": "uint256"
        }
      ],
      "name": "increaseAllowance",
      "outputs": [
        {
          "internalType": "bool",
          "name": "",
          "type": "bool"
        }
      ],
      "stateMutability": "nonpayable",
      "type": "function"
    },
    {
      "inputs": [],
      "name": "name",
      "outputs": [
        {
          "internalType": "string",
          "name": "",
          "type": "string"
        }
      ],
      "stateMutability": "view",
      "type": "function"
    },
    {
      "inputs": [],
      "name": "owner",
      "outputs": [
        {
          "internalType": "address",
          "name": "",
          "type": "address"
        }
      ],
      "stateMutability": "view",
      "type": "function"
    },
    {
      "inputs": [
        {
          "internalType": "bool",
          "name": "_pause",
          "type": "bool"
        }
      ],
      "name": "pause",
      "outputs": [],
      "stateMutability": "nonpayable",
      "type": "function"
    },
    {
      "inputs": [],
      "name": "symbol",
      "outputs": [
        {
          "internalType": "string",
          "name": "",
          "type": "string"
        }
      ],
      "stateMutability": "view",
      "type": "function"
    },
    {
      "inputs": [],
      "name": "totalSupply",
      "outputs": [
        {
          "internalType": "uint256",
          "name": "",
          "type": "uint256"
        }
      ],
      "stateMutability": "view",
      "type": "function"
    },
    {
      "inputs": [
        {
          "internalType": "address",
          "name": "to",
          "type": "address"
        },
        {
          "internalType": "uint256",
          "name": "amount",
          "type": "uint256"
        }
      ],
      "name": "transfer",
      "outputs": [
        {
          "internalType": "bool",
          "name": "",
          "type": "bool"
        }
      ],
      "stateMutability": "nonpayable",
      "type": "function"
    },
    {
      "inputs": [
        {
          "internalType": "address",
          "name": "from",
          "type": "address"
        },
        {
          "internalType": "address",
          "name": "to",
          "type": "address"
        },
        {
          "internalType": "uint256",
          "name": "amount",
          "type": "uint256"
        }
      ],
      "name": "transferFrom",
      "outputs": [
        {
          "internalType": "bool",
          "name": "",
          "type": "bool"
        }
      ],
      "stateMutability": "nonpayable",
      "type": "function"
    },
    {
      "inputs": [
        {
          "internalType": "address",
          "name": "_newOwner",
          "type": "address"
        }
      ],
      "name": "transferOwnership",
      "outputs": [],
      "stateMutability": "nonpayable",
      "type": "function"
    }
  ],
  "bytecode": "0x60806040526012600460006101000a81548160ff021916908360ff1602179055503480156200002d57600080fd5b50604051620027c4380380620027c483398181016040528101906200005391906200049a565b336000806101000a81548173ffffffffffffffffffffffffffffffffffffffff021916908373ffffffffffffffffffffffffffffffffffffffff1602179055508260059080519060200190620000ab92919062000361565b508160069080519060200190620000c492919062000361565b50620000d73382620000e060201b60201c565b505050620008d5565b60008054906101000a900473ffffffffffffffffffffffffffffffffffffffff1673ffffffffffffffffffffffffffffffffffffffff163373ffffffffffffffffffffffffffffffffffffffff16146040518060400160405280600681526020017f303138303031000000000000000000000000000000000000000000000000000081525090620001a9576040517f08c379a0000000000000000000000000000000000000000000000000000000008152600401620001a09190620005c2565b60405180910390fd5b50620001ba6200030c60201b60201c565b600073ffffffffffffffffffffffffffffffffffffffff168273ffffffffffffffffffffffffffffffffffffffff1614156200022d576040517f08c379a0000000000000000000000000000000000000000000000000000000008152600401620002249062000608565b60405180910390fd5b8060036000828254620002419190620006c2565b9250508190555080600160008473ffffffffffffffffffffffffffffffffffffffff1673ffffffffffffffffffffffffffffffffffffffff1681526020019081526020016000206000828254620002999190620006c2565b925050819055508173ffffffffffffffffffffffffffffffffffffffff16600073ffffffffffffffffffffffffffffffffffffffff167fddf252ad1be2c89b69c2b068fc378daa952ba7f163c4a11628f55a4df523b3ef836040516200030091906200062a565b60405180910390a35050565b600060149054906101000a900460ff16156200035f576040517f08c379a00000000000000000000000000000000000000000000000000000000081526004016200035690620005e6565b60405180910390fd5b565b8280546200036f906200075f565b90600052602060002090601f016020900481019282620003935760008555620003df565b82601f10620003ae57805160ff1916838001178555620003df565b82800160010185558215620003df579182015b82811115620003de578251825591602001919060010190620003c1565b5b509050620003ee9190620003f2565b5090565b5b808211156200040d576000816000905550600101620003f3565b5090565b600062000428620004228462000670565b62000647565b9050828152602081018484840111156200044157600080fd5b6200044e84828562000729565b509392505050565b600082601f8301126200046857600080fd5b81516200047a84826020860162000411565b91505092915050565b6000815190506200049481620008bb565b92915050565b600080600060608486031215620004b057600080fd5b600084015167ffffffffffffffff811115620004cb57600080fd5b620004d98682870162000456565b935050602084015167ffffffffffffffff811115620004f757600080fd5b620005058682870162000456565b9250506040620005188682870162000483565b9150509250925092565b60006200052f82620006a6565b6200053b8185620006b1565b93506200054d81856020860162000729565b620005588162000858565b840191505092915050565b600062000572601583620006b1565b91506200057f8262000869565b602082019050919050565b600062000599601f83620006b1565b9150620005a68262000892565b602082019050919050565b620005bc816200071f565b82525050565b60006020820190508181036000830152620005de818462000522565b905092915050565b60006020820190508181036000830152620006018162000563565b9050919050565b6000602082019050818103600083015262000623816200058a565b9050919050565b6000602082019050620006416000830184620005b1565b92915050565b60006200065362000666565b905062000661828262000795565b919050565b6000604051905090565b600067ffffffffffffffff8211156200068e576200068d62000829565b5b620006998262000858565b9050602081019050919050565b600081519050919050565b600082825260208201905092915050565b6000620006cf826200071f565b9150620006dc836200071f565b9250827fffffffffffffffffffffffffffffffffffffffffffffffffffffffffffffffff03821115620007145762000713620007cb565b5b828201905092915050565b6000819050919050565b60005b83811015620007495780820151818401526020810190506200072c565b8381111562000759576000848401525b50505050565b600060028204905060018216806200077857607f821691505b602082108114156200078f576200078e620007fa565b5b50919050565b620007a08262000858565b810181811067ffffffffffffffff82111715620007c257620007c162000829565b5b80604052505050565b7f4e487b7100000000000000000000000000000000000000000000000000000000600052601160045260246000fd5b7f4e487b7100000000000000000000000000000000000000000000000000000000600052602260045260246000fd5b7f4e487b7100000000000000000000000000000000000000000000000000000000600052604160045260246000fd5b6000601f19601f8301169050919050565b7f746f6b656e207472616e73666572207061757365640000000000000000000000600082015250565b7f45524332303a206d696e7420746f20746865207a65726f206164647265737300600082015250565b620008c6816200071f565b8114620008d257600080fd5b50565b611edf80620008e56000396000f3fe608060405234801561001057600080fd5b50600436106101165760003560e01c806370a08231116100a2578063a457c2d711610071578063a457c2d7146102e3578063a9059cbb14610313578063dd62ed3e14610343578063f2fde38b14610373578063f3fe3bc31461038f57610116565b806370a0823114610259578063860d248a146102895780638da5cb5b146102a757806395d89b41146102c557610116565b806323b872dd116100e957806323b872dd146101a3578063313ce567146101d357806339509351146101f15780634e6ec247146102215780636161eb181461023d57610116565b806302329a291461011b57806306fdde0314610137578063095ea7b31461015557806318160ddd14610185575b600080fd5b61013560048036038101906101309190611595565b6103ad565b005b61013f610491565b60405161014c91906117ea565b60405180910390f35b61016f600480360381019061016a9190611559565b610523565b60405161017c91906117cf565b60405180910390f35b61018d61053f565b60405161019a919061196c565b60405180910390f35b6101bd60048036038101906101b8919061150a565b610549565b6040516101ca91906117cf565b60405180910390f35b6101db610571565b6040516101e89190611987565b60405180910390f35b61020b60048036038101906102069190611559565b610588565b60405161021891906117cf565b60405180910390f35b61023b60048036038101906102369190611559565b6105b8565b005b61025760048036038101906102529190611559565b6107d0565b005b610273600480360381019061026e91906114a5565b610a60565b604051610280919061196c565b60405180910390f35b610291610aa9565b60405161029e91906117ea565b60405180910390f35b6102af610ae2565b6040516102bc91906117b4565b60405180910390f35b6102cd610b06565b6040516102da91906117ea565b60405180910390f35b6102fd60048036038101906102f89190611559565b610b98565b60405161030a91906117cf565b60405180910390f35b61032d60048036038101906103289190611559565b610c08565b60405161033a91906117cf565b60405180910390f35b61035d600480360381019061035891906114ce565b610c24565b60405161036a919061196c565b60405180910390f35b61038d600480360381019061038891906114a5565b610cab565b005b610397610ed8565b6040516103a491906117ea565b60405180910390f35b60008054906101000a900473ffffffffffffffffffffffffffffffffffffffff1673ffffffffffffffffffffffffffffffffffffffff163373ffffffffffffffffffffffffffffffffffffffff16146040518060400160405280600681526020017f303138303031000000000000000000000000000000000000000000000000000081525090610473576040517f08c379a000000000000000000000000000000000000000000000000000000000815260040161046a91906117ea565b60405180910390fd5b5080600060146101000a81548160ff02191690831515021790555050565b6060600580546104a090611ad0565b80601f01602080910402602001604051908101604052809291908181526020018280546104cc90611ad0565b80156105195780601f106104ee57610100808354040283529160200191610519565b820191906000526020600020905b8154815290600101906020018083116104fc57829003601f168201915b5050505050905090565b600080339050610534818585610f11565b600191505092915050565b6000600354905090565b60008033905061055a8582856110dc565b610565858585611168565b60019150509392505050565b6000600460009054906101000a900460ff16905090565b6000803390506105ad81858561059e8589610c24565b6105a891906119be565b610f11565b600191505092915050565b60008054906101000a900473ffffffffffffffffffffffffffffffffffffffff1673ffffffffffffffffffffffffffffffffffffffff163373ffffffffffffffffffffffffffffffffffffffff16146040518060400160405280600681526020017f30313830303100000000000000000000000000000000000000000000000000008152509061067e576040517f08c379a000000000000000000000000000000000000000000000000000000000815260040161067591906117ea565b60405180910390fd5b50610687611414565b600073ffffffffffffffffffffffffffffffffffffffff168273ffffffffffffffffffffffffffffffffffffffff1614156106f7576040517f08c379a00000000000000000000000000000000000000000000000000000000081526004016106ee9061194c565b60405180910390fd5b806003600082825461070991906119be565b9250508190555080600160008473ffffffffffffffffffffffffffffffffffffffff1673ffffffffffffffffffffffffffffffffffffffff168152602001908152602001600020600082825461075f91906119be565b925050819055508173ffffffffffffffffffffffffffffffffffffffff16600073ffffffffffffffffffffffffffffffffffffffff167fddf252ad1be2c89b69c2b068fc378daa952ba7f163c4a11628f55a4df523b3ef836040516107c4919061196c565b60405180910390a35050565b60008054906101000a900473ffffffffffffffffffffffffffffffffffffffff1673ffffffffffffffffffffffffffffffffffffffff163373ffffffffffffffffffffffffffffffffffffffff16146040518060400160405280600681526020017f303138303031000000000000000000000000000000000000000000000000000081525090610896576040517f08c379a000000000000000000000000000000000000000000000000000000000815260040161088d91906117ea565b60405180910390fd5b5061089f611414565b600073ffffffffffffffffffffffffffffffffffffffff168273ffffffffffffffffffffffffffffffffffffffff16141561090f576040517f08c379a0000000000000000000000000000000000000000000000000000000008152600401610906906118cc565b60405180910390fd5b6000600160008473ffffffffffffffffffffffffffffffffffffffff1673ffffffffffffffffffffffffffffffffffffffff16815260200190815260200160002054905081811015610996576040517f08c379a000000000000000000000000000000000000000000000000000000000815260040161098d9061184c565b60405180910390fd5b818103600160008573ffffffffffffffffffffffffffffffffffffffff1673ffffffffffffffffffffffffffffffffffffffff1681526020019081526020016000208190555081600360008282546109ee9190611a14565b92505081905550600073ffffffffffffffffffffffffffffffffffffffff168373ffffffffffffffffffffffffffffffffffffffff167fddf252ad1be2c89b69c2b068fc378daa952ba7f163c4a11628f55a4df523b3ef84604051610a53919061196c565b60405180910390a3505050565b6000600160008373ffffffffffffffffffffffffffffffffffffffff1673ffffffffffffffffffffffffffffffffffffffff168152602001908152602001600020549050919050565b6040518060400160405280600681526020017f303138303032000000000000000000000000000000000000000000000000000081525081565b60008054906101000a900473ffffffffffffffffffffffffffffffffffffffff1681565b606060068054610b1590611ad0565b80601f0160208091040260200160405190810160405280929190818152602001828054610b4190611ad0565b8015610b8e5780601f10610b6357610100808354040283529160200191610b8e565b820191906000526020600020905b815481529060010190602001808311610b7157829003601f168201915b5050505050905090565b6000803390506000610baa8286610c24565b905083811015610bef576040517f08c379a0000000000000000000000000000000000000000000000000000000008152600401610be69061192c565b60405180910390fd5b610bfc8286868403610f11565b60019250505092915050565b600080339050610c19818585611168565b600191505092915050565b6000600260008473ffffffffffffffffffffffffffffffffffffffff1673ffffffffffffffffffffffffffffffffffffffff16815260200190815260200160002060008373ffffffffffffffffffffffffffffffffffffffff1673ffffffffffffffffffffffffffffffffffffffff16815260200190815260200160002054905092915050565b60008054906101000a900473ffffffffffffffffffffffffffffffffffffffff1673ffffffffffffffffffffffffffffffffffffffff163373ffffffffffffffffffffffffffffffffffffffff16146040518060400160405280600681526020017f303138303031000000000000000000000000000000000000000000000000000081525090610d71576040517f08c379a0000000000000000000000000000000000000000000000000000000008152600401610d6891906117ea565b60405180910390fd5b50600073ffffffffffffffffffffffffffffffffffffffff168173ffffffffffffffffffffffffffffffffffffffff1614156040518060400160405280600681526020017f303138303032000000000000000000000000000000000000000000000000000081525090610e1a576040517f08c379a0000000000000000000000000000000000000000000000000000000008152600401610e1191906117ea565b60405180910390fd5b508073ffffffffffffffffffffffffffffffffffffffff1660008054906101000a900473ffffffffffffffffffffffffffffffffffffffff1673ffffffffffffffffffffffffffffffffffffffff167f8be0079c531659141344cd1fd0a4f28419497f9722a3daafe3b4186f6b6457e060405160405180910390a3806000806101000a81548173ffffffffffffffffffffffffffffffffffffffff021916908373ffffffffffffffffffffffffffffffffffffffff16021790555050565b6040518060400160405280600681526020017f303138303031000000000000000000000000000000000000000000000000000081525081565b600073ffffffffffffffffffffffffffffffffffffffff168373ffffffffffffffffffffffffffffffffffffffff161415610f81576040517f08c379a0000000000000000000000000000000000000000000000000000000008152600401610f789061190c565b60405180910390fd5b600073ffffffffffffffffffffffffffffffffffffffff168273ffffffffffffffffffffffffffffffffffffffff161415610ff1576040517f08c379a0000000000000000000000000000000000000000000000000000000008152600401610fe89061186c565b60405180910390fd5b80600260008573ffffffffffffffffffffffffffffffffffffffff1673ffffffffffffffffffffffffffffffffffffffff16815260200190815260200160002060008473ffffffffffffffffffffffffffffffffffffffff1673ffffffffffffffffffffffffffffffffffffffff168152602001908152602001600020819055508173ffffffffffffffffffffffffffffffffffffffff168373ffffffffffffffffffffffffffffffffffffffff167f8c5be1e5ebec7d5bd14f71427d1e84f3dd0314c0f7b2291e5b200ac8c7c3b925836040516110cf919061196c565b60405180910390a3505050565b60006110e88484610c24565b90507fffffffffffffffffffffffffffffffffffffffffffffffffffffffffffffffff81146111625781811015611154576040517f08c379a000000000000000000000000000000000000000000000000000000000815260040161114b9061188c565b60405180910390fd5b6111618484848403610f11565b5b50505050565b611170611414565b600073ffffffffffffffffffffffffffffffffffffffff168373ffffffffffffffffffffffffffffffffffffffff1614156111e0576040517f08c379a00000000000000000000000000000000000000000000000000000000081526004016111d7906118ec565b60405180910390fd5b600073ffffffffffffffffffffffffffffffffffffffff168273ffffffffffffffffffffffffffffffffffffffff161415611250576040517f08c379a00000000000000000000000000000000000000000000000000000000081526004016112479061180c565b60405180910390fd5b6000600160008573ffffffffffffffffffffffffffffffffffffffff1673ffffffffffffffffffffffffffffffffffffffff168152602001908152602001600020549050818110156112d7576040517f08c379a00000000000000000000000000000000000000000000000000000000081526004016112ce906118ac565b60405180910390fd5b818103600160008673ffffffffffffffffffffffffffffffffffffffff1673ffffffffffffffffffffffffffffffffffffffff168152602001908152602001600020819055506000655af3107a40009050600081846113369190611a14565b9050816003600082825461134a9190611a14565b9250508190555080600160008773ffffffffffffffffffffffffffffffffffffffff1673ffffffffffffffffffffffffffffffffffffffff16815260200190815260200160002060008282546113a091906119be565b925050819055508473ffffffffffffffffffffffffffffffffffffffff168673ffffffffffffffffffffffffffffffffffffffff167fddf252ad1be2c89b69c2b068fc378daa952ba7f163c4a11628f55a4df523b3ef86604051611404919061196c565b60405180910390a3505050505050565b600060149054906101000a900460ff1615611464576040517f08c379a000000000000000000000000000000000000000000000000000000000815260040161145b9061182c565b60405180910390fd5b565b60008135905061147581611e64565b92915050565b60008135905061148a81611e7b565b92915050565b60008135905061149f81611e92565b92915050565b6000602082840312156114b757600080fd5b60006114c584828501611466565b91505092915050565b600080604083850312156114e157600080fd5b60006114ef85828601611466565b925050602061150085828601611466565b9150509250929050565b60008060006060848603121561151f57600080fd5b600061152d86828701611466565b935050602061153e86828701611466565b925050604061154f86828701611490565b9150509250925092565b6000806040838503121561156c57600080fd5b600061157a85828601611466565b925050602061158b85828601611490565b9150509250929050565b6000602082840312156115a757600080fd5b60006115b58482850161147b565b91505092915050565b6115c781611a48565b82525050565b6115d681611a5a565b82525050565b60006115e7826119a2565b6115f181856119ad565b9350611601818560208601611a9d565b61160a81611b60565b840191505092915050565b60006116226023836119ad565b915061162d82611b71565b604082019050919050565b60006116456015836119ad565b915061165082611bc0565b602082019050919050565b60006116686022836119ad565b915061167382611be9565b604082019050919050565b600061168b6022836119ad565b915061169682611c38565b604082019050919050565b60006116ae601d836119ad565b91506116b982611c87565b602082019050919050565b60006116d16026836119ad565b91506116dc82611cb0565b604082019050919050565b60006116f46021836119ad565b91506116ff82611cff565b604082019050919050565b60006117176025836119ad565b915061172282611d4e565b604082019050919050565b600061173a6024836119ad565b915061174582611d9d565b604082019050919050565b600061175d6025836119ad565b915061176882611dec565b604082019050919050565b6000611780601f836119ad565b915061178b82611e3b565b602082019050919050565b61179f81611a86565b82525050565b6117ae81611a90565b82525050565b60006020820190506117c960008301846115be565b92915050565b60006020820190506117e460008301846115cd565b92915050565b6000602082019050818103600083015261180481846115dc565b905092915050565b6000602082019050818103600083015261182581611615565b9050919050565b6000602082019050818103600083015261184581611638565b9050919050565b600060208201905081810360008301526118658161165b565b9050919050565b600060208201905081810360008301526118858161167e565b9050919050565b600060208201905081810360008301526118a5816116a1565b9050919050565b600060208201905081810360008301526118c5816116c4565b9050919050565b600060208201905081810360008301526118e5816116e7565b9050919050565b600060208201905081810360008301526119058161170a565b9050919050565b600060208201905081810360008301526119258161172d565b9050919050565b6000602082019050818103600083015261194581611750565b9050919050565b6000602082019050818103600083015261196581611773565b9050919050565b60006020820190506119816000830184611796565b92915050565b600060208201905061199c60008301846117a5565b92915050565b600081519050919050565b600082825260208201905092915050565b60006119c982611a86565b91506119d483611a86565b9250827fffffffffffffffffffffffffffffffffffffffffffffffffffffffffffffffff03821115611a0957611a08611b02565b5b828201905092915050565b6000611a1f82611a86565b9150611a2a83611a86565b925082821015611a3d57611a3c611b02565b5b828203905092915050565b6000611a5382611a66565b9050919050565b60008115159050919050565b600073ffffffffffffffffffffffffffffffffffffffff82169050919050565b6000819050919050565b600060ff82169050919050565b60005b83811015611abb578082015181840152602081019050611aa0565b83811115611aca576000848401525b50505050565b60006002820490506001821680611ae857607f821691505b60208210811415611afc57611afb611b31565b5b50919050565b7f4e487b7100000000000000000000000000000000000000000000000000000000600052601160045260246000fd5b7f4e487b7100000000000000000000000000000000000000000000000000000000600052602260045260246000fd5b6000601f19601f8301169050919050565b7f45524332303a207472616e7366657220746f20746865207a65726f206164647260008201527f6573730000000000000000000000000000000000000000000000000000000000602082015250565b7f746f6b656e207472616e73666572207061757365640000000000000000000000600082015250565b7f45524332303a206275726e20616d6f756e7420657863656564732062616c616e60008201527f6365000000000000000000000000000000000000000000000000000000000000602082015250565b7f45524332303a20617070726f766520746f20746865207a65726f20616464726560008201527f7373000000000000000000000000000000000000000000000000000000000000602082015250565b7f45524332303a20696e73756666696369656e7420616c6c6f77616e6365000000600082015250565b7f45524332303a207472616e7366657220616d6f756e742065786365656473206260008201527f616c616e63650000000000000000000000000000000000000000000000000000602082015250565b7f45524332303a206275726e2066726f6d20746865207a65726f2061646472657360008201527f7300000000000000000000000000000000000000000000000000000000000000602082015250565b7f45524332303a207472616e736665722066726f6d20746865207a65726f20616460008201527f6472657373000000000000000000000000000000000000000000000000000000602082015250565b7f45524332303a20617070726f76652066726f6d20746865207a65726f2061646460008201527f7265737300000000000000000000000000000000000000000000000000000000602082015250565b7f45524332303a2064656372656173656420616c6c6f77616e63652062656c6f7760008201527f207a65726f000000000000000000000000000000000000000000000000000000602082015250565b7f45524332303a206d696e7420746f20746865207a65726f206164647265737300600082015250565b611e6d81611a48565b8114611e7857600080fd5b50565b611e8481611a5a565b8114611e8f57600080fd5b50565b611e9b81611a86565b8114611ea657600080fd5b5056fea26469706673582212201df72831697e8c9b09ec3b12ba9d313fd053ff8cd875030a0e688cc47ffdd46364736f6c63430008040033",
  "linkReferences": {},
  "deployedLinkReferences": {}
}